:100000000C9461000C947E000C947E000C947E0095
:100010000C947E000C947E000C947E000C947E0068
:100020000C947E000C947E000C947E000C947E0058
:100030000C947E000C947E000C947E000C947E0048
:100040000C9453010C947E000C947E000C947E0062
:100050000C947E000C947E000C947E000C947E0028
:100060000C947E000C947E00000000002500280007
:100070002B0000000000240027002A0000000000E0
:1000800023002600290004040404040404040202DA
:100090000202020203030303030301020408102007
:1000A0004080010204081020010204081020000012
:1000B0000008000201000003040700000000000027
:1000C000000011241FBECFEFD8E0DEBFCDBF11E08E
:1000D000A0E0B1E0EEEFF4E002C005900D92AA308E
:1000E000B107D9F721E0AAE0B1E001C01D92A33128
:1000F000B207E1F70E949D010C947D020C94000070
:10010000833081F028F4813099F08230A9F008958D
:100110008730A9F08830C9F08430B1F48091800034
:100120008F7D03C0809180008F7780938000089539
:1001300084B58F7784BD089584B58F7DFBCF809182
:10014000B0008F778093B00008958091B0008F7DCC
:10015000F9CFCF93DF93E6EBF0E08491E2EAF0E0B1
:10016000D491EEE8F0E0C491CC23A1F081110E947B
:100170008000EC2FF0E0EE0FFF1FE458FF4FA59139
:10018000B491EC91ED2381E090E009F480E0DF91FF
:10019000CF91089580E090E0FACF1F93CF93DF9343
:1001A000282F30E0F901E255FF4F8491F901E6561E
:1001B000FF4FD491F901EA57FF4FC491CC23A9F026
:1001C000162F81110E948000EC2FF0E0EE0FFF1F30
:1001D000E859FF4FA591B4918FB7F894EC911111A4
:1001E00008C0D095DE23DC938FBFDF91CF911F91A4
:1001F0000895DE2BF8CF3FB7F89480910F019091CE
:100200001001A0911101B091120126B5A89B05C063
:100210002F3F19F00196A11DB11D3FBFBA2FA92F85
:10022000982F8827BC01CD01620F711D811D911D82
:1002300042E0660F771F881F991F4A95D1F70895EE
:100240008F929F92AF92BF92CF92DF92EF92FF92E6
:100250006B017C010E94FB004B015C01C114D104C5
:10026000E104F104B9F00E94FB00681979098A09D8
:100270009B09683E73408105910580F321E0C21A15
:10028000D108E108F10888EE880E83E0981EA11CD1
:10029000B11CE4CFFF90EF90DF90CF90BF90AF9074
:1002A0009F908F9008951F920F920FB60F92112476
:1002B0002F933F938F939F93AF93BF9380910B01A5
:1002C00090910C01A0910D01B0910E0130910A01A5
:1002D00023E0230F2D3758F50196A11DB11D209362
:1002E0000A0180930B0190930C01A0930D01B09330
:1002F0000E0180910F0190911001A0911101B09118
:1003000012010196A11DB11D80930F019093100160
:10031000A0931101B0931201BF91AF919F918F9162
:100320003F912F910F900FBE0F901F90189526E8C8
:10033000230F0296A11DB11DD2CF789484B582609F
:1003400084BD84B5816084BD85B5826085BD85B579
:10035000816085BD80916E00816080936E001092F7
:100360008100809181008260809381008091810072
:100370008160809381008091800081608093800003
:100380008091B10084608093B1008091B000816061
:100390008093B00080917A00846080937A0080918D
:1003A0007A00826080937A0080917A0081608093E5
:1003B0007A0080917A00806880937A001092C10060
:1003C000E2EAF0E02491EEE8F0E084918823C1F0C5
:1003D00090E0880F991FFC01EE58FF4FC591D49112
:1003E000FC01E859FF4FA591B4919FB7F89488811B
:1003F000E22FE0958E2388838C91E823EC939FBFB6
:100400002AE031E0C0E0D1E0899199919927FC017F
:10041000E656FF4F44918A579F4FFC0184918823F1
:1004200099F090E0880F991FFC01EE58FF4FA591BD
:10043000B491FC01E859FF4F859194918FB7F894DE
:10044000EC91E42BEC938FBF2C173D07E9F690E07D
:10045000C92E90E0D92E0E94A900019709F046C04C
:1004600004E010E06CE271E080E090E00E94200186
:1004700001501109B9F700E011E0F80180810E5F29
:100480001F4F61E00E94CD0064EF71E080E090E0DA
:100490000E942001C017D10781F760E971E080E078
:1004A00090E00E94200180E0E82E81E0F82EF70124
:1004B0008081F2E0EF0EF11C60E00E94CD0064EF5D
:1004C00071E080E090E00E9420010E151F0579F791
:1004D00060E971E080E090E00E9420010E94A900A4
:1004E000892BE1F360E086E00E94CD00C114D104C5
:0E04F00009F4B1CF0E940000AECFF894FFCF08
:0A04FE0002000300040005000600E0
:00000001FF
